{"abi":[{"type":"constructor","inputs":[],"stateMutability":"nonpayable"},{"type":"fallback","stateMutability":"payable"},{"type":"receive","stateMutability":"payable"},{"type":"function","name":"MAX_CANDIDATES","inputs":[],"outputs":[{"name":"","type":"uint256","internalType":"uint256"}],"stateMutability":"view"},{"type":"function","name":"MIN_CANDIDATES","inputs":[],"outputs":[{"name":"","type":"uint256","internalType":"uint256"}],"stateMutability":"view"},{"type":"function","name":"cancelElection","inputs":[{"name":"_electionId","type":"uint256","internalType":"uint256"}],"outputs":[],"stateMutability":"nonpayable"},{"type":"function","name":"createElection","inputs":[{"name":"_name","type":"string","internalType":"string"},{"name":"_description","type":"string","internalType":"string"},{"name":"_image","type":"string","internalType":"string"},{"name":"_sectionId","type":"string","internalType":"string"},{"name":"_candidatesNames","type":"string[]","internalType":"string[]"},{"name":"_deadline","type":"uint256","internalType":"uint256"}],"outputs":[],"stateMutability":"nonpayable"},{"type":"function","name":"getElectionById","inputs":[{"name":"_electionId","type":"uint256","internalType":"uint256"}],"outputs":[{"name":"","type":"tuple","internalType":"struct Votium.ElectionView","components":[{"name":"name","type":"string","internalType":"string"},{"name":"description","type":"string","internalType":"string"},{"name":"image","type":"string","internalType":"string"},{"name":"deadline","type":"uint256","internalType":"uint256"},{"name":"totalVotes","type":"uint256","internalType":"uint256"},{"name":"hasVoted","type":"bool","internalType":"bool"},{"name":"cancelled","type":"bool","internalType":"bool"}]}],"stateMutability":"view"},{"type":"function","name":"getElectionByIdWithResult","inputs":[{"name":"_electionId","type":"uint256","internalType":"uint256"}],"outputs":[{"name":"","type":"tuple","internalType":"struct Votium.ElectionViewResult","components":[{"name":"name","type":"string","internalType":"string"},{"name":"description","type":"string","internalType":"string"},{"name":"image","type":"string","internalType":"string"},{"name":"deadline","type":"uint256","internalType":"uint256"},{"name":"totalVotes","type":"uint256","internalType":"uint256"},{"name":"candidates","type":"tuple[]","internalType":"struct Votium.CandidateStruct[]","components":[{"name":"candidateId","type":"uint32","internalType":"uint32"},{"name":"voteCount","type":"uint32","internalType":"uint32"},{"name":"name","type":"string","internalType":"string"}]},{"name":"hasVoted","type":"bool","internalType":"bool"},{"name":"cancelled","type":"bool","internalType":"bool"}]}],"stateMutability":"view"},{"type":"function","name":"getElectionWithCandidates","inputs":[{"name":"_electionId","type":"uint256","internalType":"uint256"}],"outputs":[{"name":"","type":"tuple","internalType":"struct Votium.ElectionWithCandidates","components":[{"name":"name","type":"string","internalType":"string"},{"name":"description","type":"string","internalType":"string"},{"name":"image","type":"string","internalType":"string"},{"name":"deadline","type":"uint256","internalType":"uint256"},{"name":"totalVotes","type":"uint256","internalType":"uint256"},{"name":"candidates","type":"tuple[]","internalType":"struct Votium.CandidateStruct[]","components":[{"name":"candidateId","type":"uint32","internalType":"uint32"},{"name":"voteCount","type":"uint32","internalType":"uint32"},{"name":"name","type":"string","internalType":"string"}]},{"name":"hasVoted","type":"bool","internalType":"bool"},{"name":"cancelled","type":"bool","internalType":"bool"}]}],"stateMutability":"view"},{"type":"function","name":"getElections","inputs":[],"outputs":[{"name":"","type":"tuple[]","internalType":"struct Votium.ElectionView[]","components":[{"name":"name","type":"string","internalType":"string"},{"name":"description","type":"string","internalType":"string"},{"name":"image","type":"string","internalType":"string"},{"name":"deadline","type":"uint256","internalType":"uint256"},{"name":"totalVotes","type":"uint256","internalType":"uint256"},{"name":"hasVoted","type":"bool","internalType":"bool"},{"name":"cancelled","type":"bool","internalType":"bool"}]}],"stateMutability":"view"},{"type":"function","name":"owner","inputs":[],"outputs":[{"name":"","type":"address","internalType":"address"}],"stateMutability":"view"},{"type":"function","name":"pause","inputs":[],"outputs":[],"stateMutability":"nonpayable"},{"type":"function","name":"paused","inputs":[],"outputs":[{"name":"","type":"bool","internalType":"bool"}],"stateMutability":"view"},{"type":"function","name":"renounceOwnership","inputs":[],"outputs":[],"stateMutability":"nonpayable"},{"type":"function","name":"totalElectionIds","inputs":[],"outputs":[{"name":"","type":"uint256","internalType":"uint256"}],"stateMutability":"view"},{"type":"function","name":"transferOwnership","inputs":[{"name":"newOwner","type":"address","internalType":"address"}],"outputs":[],"stateMutability":"nonpayable"},{"type":"function","name":"transferToNewOwner","inputs":[{"name":"newOwner","type":"address","internalType":"address"}],"outputs":[],"stateMutability":"nonpayable"},{"type":"function","name":"unpause","inputs":[],"outputs":[],"stateMutability":"nonpayable"},{"type":"function","name":"vote","inputs":[{"name":"_electionId","type":"uint256","internalType":"uint256"},{"name":"_candidateId","type":"uint256","internalType":"uint256"},{"name":"_sectionId","type":"string","internalType":"string"}],"outputs":[],"stateMutability":"nonpayable"},{"type":"event","name":"ElectionCancelled","inputs":[{"name":"electionId","type":"uint256","indexed":true,"internalType":"uint256"}],"anonymous":false},{"type":"event","name":"ElectionCreated","inputs":[{"name":"id","type":"uint256","indexed":false,"internalType":"uint256"},{"name":"creator","type":"address","indexed":true,"internalType":"address"},{"name":"name","type":"string","indexed":false,"internalType":"string"},{"name":"description","type":"string","indexed":false,"internalType":"string"},{"name":"image","type":"string","indexed":false,"internalType":"string"},{"name":"deadline","type":"uint256","indexed":false,"internalType":"uint256"}],"anonymous":false},{"type":"event","name":"OwnershipTransferred","inputs":[{"name":"previousOwner","type":"address","indexed":true,"internalType":"address"},{"name":"newOwner","type":"address","indexed":true,"internalType":"address"}],"anonymous":false},{"type":"event","name":"Paused","inputs":[{"name":"account","type":"address","indexed":false,"internalType":"address"}],"anonymous":false},{"type":"event","name":"Unpaused","inputs":[{"name":"account","type":"address","indexed":false,"internalType":"address"}],"anonymous":false},{"type":"event","name":"VoteSubmitted","inputs":[{"name":"electionId","type":"uint256","indexed":true,"internalType":"uint256"},{"name":"voterAddress","type":"address","indexed":true,"internalType":"address"},{"name":"candidateId","type":"uint256","indexed":true,"internalType":"uint256"}],"anonymous":false},{"type":"error","name":"AlreadyCancelled","inputs":[]},{"type":"error","name":"AlreadyVoted","inputs":[]},{"type":"error","name":"DeadlineMustBeInFuture","inputs":[]},{"type":"error","name":"DuplicateCandidateNames","inputs":[]},{"type":"error","name":"ElectionAlreadyEnded","inputs":[]},{"type":"error","name":"ElectionEnded","inputs":[]},{"type":"error","name":"ElectionIsCancelled","inputs":[]},{"type":"error","name":"ElectionNotEndedYet","inputs":[]},{"type":"error","name":"ElectionNotFound","inputs":[]},{"type":"error","name":"EmptyCandidateName","inputs":[]},{"type":"error","name":"EnforcedPause","inputs":[]},{"type":"error","name":"ExpectedPause","inputs":[]},{"type":"error","name":"InvalidCandidateCount","inputs":[]},{"type":"error","name":"InvalidCandidateId","inputs":[]},{"type":"error","name":"InvalidDescriptionLength","inputs":[]},{"type":"error","name":"InvalidImageLength","inputs":[]},{"type":"error","name":"InvalidNameLength","inputs":[]},{"type":"error","name":"InvalidSectionId","inputs":[]},{"type":"error","name":"NotElectionCreator","inputs":[]},{"type":"error","name":"OwnableInvalidOwner","inputs":[{"name":"owner","type":"address","internalType":"address"}]},{"type":"error","name":"OwnableUnauthorizedAccount","inputs":[{"name":"account","type":"address","internalType":"address"}]}],"bytecode":{"object":"0x60c080604052346100a157331561008e575f8054336001600160a01b0319821681178355916001600160a01b03909116907f8be0079c531659141344cd1fd0a4f28419497f9722a3daafe3b4186f6b6457e09080a35f6001556002608052600660a05261198590816100a68239608051818181610a990152610c33015260a0518181816101ba01526111db0152f35b631e4fbdf760e01b5f525f60045260245ffd5b5f80fdfe6080806040526004361015610088575b50361561004a5760405162461bcd60e51b815260206004820152600c60248201526b125b9d985b1a590818d85b1b60a21b6044820152606490fd5b60405162461bcd60e51b8152602060048201526016602482015275111a5c9958dd08115512081b9bdd08185b1b1bddd95960521b6044820152606490fd5b5f3560e01c9081631aa839231461140d575080633f4ba83a146113a15780635c975abb1461137d578063715018a6146113265780637372e9be146112f15780638456cb59146112915780638a522d4c14610ae35780638da5cb5b14610abc5780639d9eab8814610a825780639f3a7f5214610922578063a1bbfc0514610743578063c119f7031461054c578063c6958b121461048a578063d8fe0c2a1461038c578063e4525299146101dd578063f0786096146101a35763f2fde38b1461014f575f61000f565b3461019f57602036600319011261019f576004356001600160a01b03811680820361019f5761017c6118c6565b1561018c5761018a906118ec565b005b631e4fbdf760e01b5f525f60045260245ffd5b5f80fd5b3461019f575f36600319011261019f5760206040517f00000000000000000000000000000000000000000000000000000000000000008152f35b3461019f57602036600319011261019f576004356101f9611886565b50805f526002602052610212600460405f2001546116ed565b1561037d57805f5260026020526001600160401b03600260405f20015416421061036e575f52600260205260405f206001600160401b0360028201541690600381015491600782019260018060a01b0333165f526008830160205260ff60405f2054169060ff845460a01c16926102b66006604051966102918861148a565b61029d600482016117e6565b88526102ab600582016117e6565b6020890152016117e6565b60408601526060850152608084015283546102d0816114c7565b906102de60405192836114a6565b80825260208201955f5260205f20955f905b82821061032a57505050610326945060a0840152151560c0830152151560e08201526040519182916020835260208301906115b3565b0390f35b6002602060019260405161033d81611454565b63ffffffff8c548181168352841c168382015261035b858d016117e6565b60408201528152019801910190966102f0565b6321709c9960e21b5f5260045ffd5b6305ce45f760e51b5f5260045ffd5b3461019f57602036600319011261019f576004356103a8611932565b805f5260026020526103c0600460405f2001546116ed565b1561037d575f818152600260205260409020546001600160a01b0316330361047b57805f5260026020526001600160401b03600260405f2001541642101561046c57805f52600260205260ff60405f205460a01c1661045d575f818152600260205260408120805460ff60a01b1916600160a01b1790557fc28a75da4b0e0963a0241b197a7b92cb2dfc51804c8c096ec8d8897d20dc42879080a2005b6354e3762560e01b5f5260045ffd5b63399d988360e21b5f5260045ffd5b630a9c54db60e21b5f5260045ffd5b3461019f57602036600319011261019f576004356104a66117ad565b50805f5260026020526104bf600460405f2001546116ed565b1561037d575f52600260205261032660405f206001600160401b03600282015416600382015460018060a01b0333165f526008830160205260ff60405f2054169060ff845460a01c169261051b6006604051966102918861146f565b604086015260608501526080840152151560a0830152151560c0820152604051918291602083526020830190611547565b3461019f57602036600319011261019f57600435610568611886565b50805f526002602052610581600460405f2001546116ed565b1561037d575f52600260205260405f2060078101908154916105a2836114c7565b6105af60405191826114a6565b838152601f196105be856114c7565b015f5b8181106107195750506001600160401b0360028401541691428311905f5b868110610691575061032695505015610686575f905b60018060a01b0333165f526008840160205260ff60405f2054169160ff855460a01c169361065060066040519761062b8961148a565b610637600482016117e6565b8952610645600582016117e6565b60208a0152016117e6565b60408701526060860152608085015260a0840152151560c0830152151560e08201526040519182916020835260208301906115b3565b6003830154906105f5565b8063ffffffff6106a360019385611774565b5054166106dd836106b48487611774565b5087156106fe5763ffffffff5f5b604051956106cf87611454565b8652166020850152016117e6565b60408201526106ec82876116b7565b526106f781866116b7565b50016105df565b63ffffffff8061070e878a611774565b505460201c166106c2565b60209060405161072881611454565b5f81525f8382015260606040820152828286010152016105c1565b3461019f57606036600319011261019f576024356004356044356001600160401b03811161019f57610779903690600401611427565b90610782611932565b825f52600260205260405f209161079c60048401546116ed565b1561037d5760ff835460a01c1661091357600883019160018060a01b0333165f528260205260ff60405f205416610904576107de9060018501549236916114de565b60208151910120036108f5576001600160401b036002830154164210156108e657831580156108d9575b6108ca57335f90815260209190915260409020805460ff191660011790555f1983018381116108b65761083e9060078301611774565b509063ffffffff825460201c1663ffffffff81146108b6576003926001610881920167ffffffff0000000082549160201b169067ffffffff000000001916179055565b0161088c81546116df565b905533907fa5876137634fc61be6a6224d5f4a2d0926145388c51a133c03cc00f7b66e0e3c5f80a4005b634e487b7160e01b5f52601160045260245ffd5b63347247e160e21b5f5260045ffd5b5060078201548411610808565b63066ec72360e41b5f5260045ffd5b6303504dfd60e31b5f5260045ffd5b637c9a1cf960e01b5f5260045ffd5b63d544a30360e01b5f5260045ffd5b3461019f575f36600319011261019f5760015461093e816114c7565b9061094c60405192836114a6565b808252601f1961095b826114c7565b015f5b818110610a6b5750339190505f5b8181106109da57836040518091602082016020835281518091526040830190602060408260051b8601019301915f905b8282106109ab57505050500390f35b919360019193955060206109ca8192603f198a82030186528851611547565b960192019201859493919261099c565b60018101908181116108b657610a6590825f52600260205260405f206001600160401b036002820154166003820154875f526008830160205260ff60405f2054169060ff845460a01c1692610a376006604051966102918861146f565b604086015260608501526080840152151560a0830152151560c0820152610a5e82886116b7565b52856116b7565b5061096c565b602090610a766117ad565b8282870101520161095e565b3461019f575f36600319011261019f5760206040517f00000000000000000000000000000000000000000000000000000000000000008152f35b3461019f575f36600319011261019f575f546040516001600160a01b039091168152602090f35b3461019f5760c036600319011261019f576004356001600160401b03811161019f57610b13903690600401611427565b6024356001600160401b03811161019f57610b32903690600401611427565b906044356001600160401b03811161019f57610b52903690600401611427565b9190926064356001600160401b03811161019f57610b74903690600401611427565b9690956084356001600160401b03811161019f573660238201121561019f578060040135610ba1816114c7565b91610baf60405193846114a6565b8183526024602084019260051b8201019036821161019f5760248101925b828410611251575050505060a43597610be4611932565b82158015611247575b611238578415801561122e575b61121f5786156112105789156108f557603c890298808a04603c14901517156108b65742610c288a426116aa565b1115611201578151917f0000000000000000000000000000000000000000000000000000000000000000831080156111d8575b6111c9575f5b83811061114d5750610c82610c776001546116df565b9a8b600155426116aa565b9a8a5f52600260205260405f2092336bffffffffffffffffffffffff60a01b855416178455600484016001600160401b038711610fc057610ccd87610cc783546116ed565b83611725565b5f87601f81116001146110e95780610cf9925f916110de575b508160011b915f199060031b1c19161790565b90555b600584016001600160401b038911610fc057610d1c89610cc783546116ed565b5f89601f81116001146110785780610d47925f9161106d57508160011b915f199060031b1c19161790565b90555b60068401916001600160401b038b11610fc057610d718b610d6b85546116ed565b85611725565b5f928b8d601f8211600114610ff2579080610db296610da5935f92610fe7575b50508160011b915f199060031b1c19161790565b90559493945b36916114de565b602081519101206001840155600283016001600160401b038c166001600160401b03198254161790555f600384015560075f9301925b828110610e62578b7f79adb0ab65d2f6a32f0a1691e577543e3f7945f1f92a1ec60d731d1aa6e3a94a8c610e548d8d610e468e8e610e388f8f604051998a5260a060208b015260a08a019161178d565b91878303604089015261178d565b91848303606086015261178d565b9260808201528033930390a2005b60018101908181116108b657610e7890836116b7565b51604051610e8581611454565b63ffffffff83168152602081015f815260408201928352865468010000000000000000811015610fc057806001610ebf9201895588611774565b919091610fd45791518154925167ffffffffffffffff1990931663ffffffff919091161760209290921b67ffffffff000000001691909117815560010190518051906001600160401b038211610fc057610f1d82610d6b85546116ed565b602090601f8311600114610f5d57610f4b92915f9183610f525750508160011b915f199060031b1c19161790565b9055610de8565b015190505f80610d91565b90601f19831691845f52815f20925f5b818110610fa85750908460019594939210610f90575b505050811b019055610de8565b01515f1960f88460031b161c191690558f8080610f83565b92936020600181928786015181550195019301610f6d565b634e487b7160e01b5f52604160045260245ffd5b634e487b7160e01b5f525f60045260245ffd5b013590508f80610d91565b5f83815260208120929690601f198816905b81811061104657509680610db2981061102c575b91505060018092501b019055949394610dab565b60f85f199160031b161c199101351690558f8d818e611018565b93829596979850600190602093849395013581550194019201918f918f9796959493611004565b90508c01355f610ce6565b50601f198a1690825f528a60205f20928d5f905b8282106110c3575050106110aa575b5050600189811b019055610d4a565b8b01355f1960038c901b60f8161c191690558e8061109b565b84013585556001909401936020938401938e9350018e61108c565b90508a01355f610ce6565b50601f19881690825f528860205f20925f5b8c8282106111335750501061111a575b5050600187811b019055610cfc565b8901355f1960038a901b60f8161c191690558e8061110b565b84013585556001909401936020938401938c9350016110fb565b61115781836116b7565b5151156111ba5760018101908181116108b657815b85811061117a575050610c61565b61118482856116b7565b516020815191012061119682866116b7565b5160208151910120146111ab5760010161116c565b630292f65d60e21b5f5260045ffd5b63cd95819d60e01b5f5260045ffd5b632853b25560e01b5f5260045ffd5b507f00000000000000000000000000000000000000000000000000000000000000008311610c5b565b630642ce7760e01b5f5260045ffd5b6361e0158f60e01b5f5260045ffd5b630744d66960e41b5f5260045ffd5b5060c88511610bfa565b631ae3550b60e01b5f5260045ffd5b50601e8311610bed565b83356001600160401b03811161019f5782013660438201121561019f57602091611286839236906044602482013591016114de565b815201930192610bcd565b3461019f575f36600319011261019f576112a96118c6565b6112b1611932565b5f805460ff60a01b1916600160a01b1790556040513381527f62e78cea01bee320cd4e420270b5ea74000d11b0c9f74754ebdbfc544b05a25890602090a1005b3461019f57602036600319011261019f576004356001600160a01b03811680820361019f5761131e6118c6565b61017c6118c6565b3461019f575f36600319011261019f5761133e6118c6565b5f80546001600160a01b0319811682556001600160a01b03167f8be0079c531659141344cd1fd0a4f28419497f9722a3daafe3b4186f6b6457e08280a3005b3461019f575f36600319011261019f57602060ff5f5460a01c166040519015158152f35b3461019f575f36600319011261019f576113b96118c6565b5f5460ff8160a01c16156113fe5760ff60a01b19165f556040513381527f5db9ee0a495bf2e6ff9c91a7834c1ba4fdd244a5e8aa4e537bd38aeae4b073aa90602090a1005b638dfc202b60e01b5f5260045ffd5b3461019f575f36600319011261019f576020906001548152f35b9181601f8401121561019f578235916001600160401b03831161019f576020838186019501011161019f57565b606081019081106001600160401b03821117610fc057604052565b60e081019081106001600160401b03821117610fc057604052565b61010081019081106001600160401b03821117610fc057604052565b90601f801991011681019081106001600160401b03821117610fc057604052565b6001600160401b038111610fc05760051b60200190565b9291926001600160401b038211610fc05760405191611507601f8201601f1916602001846114a6565b82948184528183011161019f578281602093845f960137010152565b805180835260209291819084018484015e5f828201840152601f01601f1916010190565b9060c080611588611576611564865160e0875260e0870190611523565b60208701518682036020880152611523565b60408601518582036040870152611523565b93606081015160608501526080810151608085015260a0810151151560a08501520151151591015290565b906115f36115e16115cf84516101008552610100850190611523565b60208501518482036020860152611523565b60408401518382036040850152611523565b91606081015160608301526080810151608083015260a08101519282810360a0840152835180825260208201916020808360051b8301019601925f915b83831061165657505050505060e08160c082930151151560c08501520151151591015290565b909192939660208061169b600193601f19868203018752606060408d5163ffffffff815116845263ffffffff8682015116868501520151918160408201520190611523565b99019301930191939290611630565b919082018092116108b657565b80518210156116cb5760209160051b010190565b634e487b7160e01b5f52603260045260245ffd5b5f1981146108b65760010190565b90600182811c9216801561171b575b602083101461170757565b634e487b7160e01b5f52602260045260245ffd5b91607f16916116fc565b601f821161173257505050565b5f5260205f20906020601f840160051c8301931061176a575b601f0160051c01905b81811061175f575050565b5f8155600101611754565b909150819061174b565b80548210156116cb575f5260205f209060011b01905f90565b908060209392818452848401375f828201840152601f01601f1916010190565b604051906117ba8261146f565b5f60c0836060815260606020820152606060408201528260608201528260808201528260a08201520152565b9060405191825f8254926117f9846116ed565b80845293600181169081156118645750600114611820575b5061181e925003836114a6565b565b90505f9291925260205f20905f915b81831061184857505090602061181e928201015f611811565b602091935080600191548385890101520191019091849261182f565b90506020925061181e94915060ff191682840152151560051b8201015f611811565b604051906118938261148a565b5f60e083606081526060602082015260606040820152826060820152826080820152606060a08201528260c08201520152565b5f546001600160a01b031633036118d957565b63118cdaa760e01b5f523360045260245ffd5b5f80546001600160a01b039283166001600160a01b03198216811783559216907f8be0079c531659141344cd1fd0a4f28419497f9722a3daafe3b4186f6b6457e09080a3565b60ff5f5460a01c1661194057565b63d93c066560e01b5f5260045ffdfea2646970667358221220377ea67d38297b2582567d766bc5c10f9a5ce203edf36f5ec62cc0445cd196b664736f6c634300081b0033","linkReferences":{}},"methodIdentifiers":{"MAX_CANDIDATES()":"f0786096","MIN_CANDIDATES()":"9d9eab88","cancelElection(uint256)":"d8fe0c2a","createElection(string,string,string,string,string[],uint256)":"8a522d4c","getElectionById(uint256)":"c6958b12","getElectionByIdWithResult(uint256)":"e4525299","getElectionWithCandidates(uint256)":"c119f703","getElections()":"9f3a7f52","owner()":"8da5cb5b","pause()":"8456cb59","paused()":"5c975abb","renounceOwnership()":"715018a6","totalElectionIds()":"1aa83923","transferOwnership(address)":"f2fde38b","transferToNewOwner(address)":"7372e9be","unpause()":"3f4ba83a","vote(uint256,uint256,string)":"a1bbfc05"},"id":19}